{
  "contractName": "BurnContract",
  "abi": [
    {
      "constant": true,
      "inputs": [
        {
          "name": "",
          "type": "uint256"
        }
      ],
      "name": "burns",
      "outputs": [
        {
          "name": "burnerAddress",
          "type": "address"
        },
        {
          "name": "burnerName",
          "type": "string"
        },
        {
          "name": "message",
          "type": "string"
        },
        {
          "name": "burntAmount",
          "type": "uint256"
        }
      ],
      "payable": false,
      "stateMutability": "view",
      "type": "function"
    },
    {
      "constant": false,
      "inputs": [
        {
          "name": "_burnerName",
          "type": "string"
        },
        {
          "name": "_message",
          "type": "string"
        }
      ],
      "name": "burn",
      "outputs": [],
      "payable": true,
      "stateMutability": "payable",
      "type": "function"
    }
  ],
  "bytecode": "0x608060405234801561001057600080fd5b506105f0806100206000396000f30060806040526004361061004c576000357c0100000000000000000000000000000000000000000000000000000000900463ffffffff1680636389eae014610051578063a86eb292146100f3575b600080fd5b6100f1600480360381019080803590602001908201803590602001908080601f0160208091040260200160405190810160405280939291908181526020018383808284378201915050505050509192919290803590602001908201803590602001908080601f016020809104026020016040519081016040528093929190818152602001838380828437820191505050505050919291929050505061023f565b005b3480156100ff57600080fd5b5061011e60048036038101908080359060200190929190505050610351565b604051808573ffffffffffffffffffffffffffffffffffffffff1673ffffffffffffffffffffffffffffffffffffffff1681526020018060200180602001848152602001838103835286818151815260200191508051906020019080838360005b8381101561019a57808201518184015260208101905061017f565b50505050905090810190601f1680156101c75780820380516001836020036101000a031916815260200191505b50838103825285818151815260200191508051906020019080838360005b838110156102005780820151818401526020810190506101e5565b50505050905090810190601f16801561022d5780820380516001836020036101000a031916815260200191505b50965050505050505060405180910390f35b6102476104e0565b60003411151561025657600080fd5b6080604051908101604052803373ffffffffffffffffffffffffffffffffffffffff1681526020018481526020018381526020013481525090506000819080600181540180825580915050906001820390600052602060002090600402016000909192909190915060008201518160000160006101000a81548173ffffffffffffffffffffffffffffffffffffffff021916908373ffffffffffffffffffffffffffffffffffffffff160217905550602082015181600101908051906020019061032192919061051f565b50604082015181600201908051906020019061033e92919061051f565b5060608201518160030155505050505050565b60008181548110151561036057fe5b90600052602060002090600402016000915090508060000160009054906101000a900473ffffffffffffffffffffffffffffffffffffffff1690806001018054600181600116156101000203166002900480601f0160208091040260200160405190810160405280929190818152602001828054600181600116156101000203166002900480156104325780601f1061040757610100808354040283529160200191610432565b820191906000526020600020905b81548152906001019060200180831161041557829003601f168201915b505050505090806002018054600181600116156101000203166002900480601f0160208091040260200160405190810160405280929190818152602001828054600181600116156101000203166002900480156104d05780601f106104a5576101008083540402835291602001916104d0565b820191906000526020600020905b8154815290600101906020018083116104b357829003601f168201915b5050505050908060030154905084565b608060405190810160405280600073ffffffffffffffffffffffffffffffffffffffff1681526020016060815260200160608152602001600081525090565b828054600181600116156101000203166002900490600052602060002090601f016020900481019282601f1061056057805160ff191683800117855561058e565b8280016001018555821561058e579182015b8281111561058d578251825591602001919060010190610572565b5b50905061059b919061059f565b5090565b6105c191905b808211156105bd5760008160009055506001016105a5565b5090565b905600a165627a7a7230582098542a43dfa2b66f9e12b349d26024fa669b7cff66b9ef06cf5d968964aaf0510029",
  "source": "pragma solidity ^0.4.23;\n\ncontract BurnContract {\n  struct Burn {\n    address burnerAddress;\n    string burnerName;\n    string message;\n    uint burntAmount;\n  }\n\n  Burn[] public burns;\n\n  function burn(string _burnerName, string _message) public payable {\n    require(msg.value > 0);\n    Burn memory b = Burn(msg.sender, _burnerName, _message, msg.value);\n    burns.push(b);\n  }\n}\n",
  "sourcePath": "/Users/dbe/code/ripeth/eth/contracts/BurnContract.sol",
  "compiler": {
    "name": "solc",
    "version": "0.4.23+commit.124ca40d.Emscripten.clang"
  },
  "schemaVersion": "2.0.0",
  "updatedAt": "2018-05-18T22:37:51.795Z"
}